:100000000C9462000C948A000C948A000C948A0070
:100010000C948A000C948A000C948A000C948A0038
:100020000C948A000C948A000C948A000C948A0028
:100030000C948A000C948A000C948A000C948A0018
:100040000C942E050C948A000C949E050C94780553
:100050000C948A000C948A000C948A000C948A00F8
:100060000C9400040C948A00000000002400270077
:100070002A000000000023002600290000000000E4
:10008000250028002B0004040404040404040202D4
:100090000202020203030303030301020408102007
:1000A0004080010204081020010204081020000012
:1000B0000008000201000003040700000000000027
:1000C0000000D00511241FBECFEFD8E0DEBFCDBFAA
:1000D00011E0A0E0B1E0E2E8F0E102C005900D928D
:1000E000AC34B107D9F722E0ACE4B1E001C01D9215
:1000F000A43CB207E1F710E0C2E6D0E004C02197CB
:10010000FE010E943408C136D107C9F70E941806C3
:100110000C943F080C94000085ED8093BC00809106
:10012000BC0084FDFCCF1092E90108954091C30109
:10013000262F30E0240F311D21323105DCF42091CF
:10014000E9012430C9F4FC0180E090E0861758F4FE
:100150003091C3012191DC01AF55BE4FA30FB11DFA
:100160002C930196F3CF8091C301680F6093C30174
:1001700080E0089581E0089582E00895089508954B
:100180000895E0919E0180919D01E81730F4F0E020
:10019000E358FE4F808190E008958FEF9FEF089520
:1001A00090919E0180919D01981750F4E92FF0E005
:1001B000E358FE4F208130E09F5F90939E0102C084
:1001C0002FEF3FEFC901089580919D0190E02091AC
:1001D0009E01821B91090895CF92DF92EF92FF92C8
:1001E0000F931F93CF93DF937C01CB018A01209162
:1001F0007C01222389F0EB016B01C40ED51ECC15C6
:10020000DD0569F06991D701ED91FC910190F081D4
:10021000E02DC7010995F3CF642F0E949600C80115
:10022000DF91CF911F910F91FF90EF90DF90CF90D2
:100230000895CF93DF931F92CDB7DEB769832091E6
:100240007C012223D1F020919F01203240F021E057
:1002500030E0FC013383228380E090E015C0809180
:10026000A001E82FF0E0E45AFE4F998190838F5F60
:100270008093A00180939F0105C061E0CE010196AB
:100280000E94960081E090E00F90DF91CF91089559
:10029000833081F028F4813099F08230A1F0089504
:1002A0008730A9F08830B9F08430D1F48091800093
:1002B0008F7D03C0809180008F77809380000895A8
:1002C00084B58F7702C084B58F7D84BD08958091F9
:1002D000B0008F7703C08091B0008F7D8093B00015
:1002E0000895CF93DF93282F30E0F901E255FF4FB7
:1002F0008491F901E656FF4FD491F901EA57FF4F77
:10030000C491CC2389F081110E944801EC2FF0E0C8
:10031000EE0FFF1FE458FF4FA591B4918FB7F894EB
:10032000EC91ED2BEC938FBFDF91CF9108953FB708
:10033000F8948091580190915901A0915A01B0917F
:100340005B0126B5A89B05C02F3F19F00196A11DA2
:10035000B11D3FBFBA2FA92F982F8827820F911D5B
:10036000A11DB11DBC01CD0142E0660F771F881FA2
:10037000991F4A95D1F708958F929F92AF92BF929D
:10038000CF92DF92EF92FF926B017C010E94970166
:100390004B015C01C114D104E104F104F1F00E94AD
:1003A0009701DC01CB0188199909AA09BB09883E8C
:1003B0009340A105B10570F321E0C21AD108E1080C
:1003C000F10888EE880E83E0981EA11CB11CC114B0
:1003D000D104E104F10419F7DDCFFF90EF90DF9035
:1003E000CF90BF90AF909F908F900895CF92DF9263
:1003F000EF92FF920F931F93CF93DF936C017A01DB
:100400008B01C0E0D0E0CE15DF0581F0D8016D9101
:100410008D01D601ED91FC910190F081E02DC60196
:100420000995892B11F02196EECF7E01C701DF914E
:10043000CF911F910F91FF90EF90DF90CF90089593
:10044000FC01538D448D252F30E0842F90E0821BDA
:10045000930B541710F0CF96089501970895FC015F
:10046000918D828D981761F0828DDF01A80FB11DEB
:100470005D968C91928D9F5F9F73928F90E008950F
:100480008FEF9FEF0895FC01918D828D981731F0C9
:10049000828DE80FF11D858D90E008958FEF9FEF1D
:1004A0000895FC01918D228D892F90E0805C9F4FF3
:1004B000821B91098F73992708958BE192E00E9426
:1004C000510221E0892B09F420E0822F0895FC01DC
:1004D000848DDF01A80FB11DA35ABF4F2C91848DCD
:1004E00090E001968F739927848FA689B7892C9302
:1004F000A089B1898C91837080648C93938D848D55
:10050000981306C00288F389E02D80818F7D808357
:100510000895EF92FF920F931F93CF93DF93EC0117
:1005200081E0888F9B8D8C8D981305C0E889F989AF
:10053000808185FD26C0F62E0B8D10E00F5F1F4FCA
:100540000F731127E02E8C8DE8120CC00FB607FC3C
:10055000FACFE889F989808185FFF5CFCE010E9425
:100560006702F1CF8B8DFE01E80FF11DE35AFF4FBB
:10057000F0829FB7F8940B8FEA89FB8980818062B3
:100580000AC09FB7F894EE89FF896083E889F989EA
:1005900080818370806480839FBF81E090E0DF91E1
:1005A000CF911F910F91FF90EF900895CF93DF931C
:1005B000EC01888D8823C9F0EA89FB89808185FD5B
:1005C00005C0A889B9898C9186FD0FC00FB607FCBC
:1005D000F5CF808185FFF2CFA889B9898C9185FFFD
:1005E000EDCFCE010E946702E7CFDF91CF91089552
:1005F00080E090E0892B29F00E945D0281110C942B
:1006000000000895CF93FC01C48121E020937C0178
:10061000C0934C011092A00110929F018385682B1A
:100620008FE092E00E94190190919F01913208F0B1
:1006300045C08091E9018111FCCF82E08093E901FE
:1006400081E08093EB018FEF8093E80110920D021F
:1006500090930C02ACE5B1E0ECEEF1E080E098178D
:1006600021F02D9121938F5FFACF10920E0280918D
:100670000E02CC0FC82BC0930E028091EA0181308C
:1006800061F41092EA0180910E028093BB00809188
:10069000BC0083FDF8CF85EC01C085EE8093BC00E3
:1006A0008091E9018230E1F38091E8018F3F31F0E0
:1006B0008091E801803211F08091E8011092A00150
:1006C00010929F0110927C01CF9108950F931F9378
:1006D000CF938C01C62F0E9402036C2F6460C80167
:1006E0000E9402036C2F6B7FC8010E94020383ECFF
:1006F00090E00197F1F7CF911F910F9108950F931B
:100700001F93CF93DF938C01C62FD42F607F642B70
:100710000E94660380E1C89FB00111246D2BC801BF
:10072000DF91CF911F910F910C94660341E00E94DD
:100730007F0381E090E00895089580E090E00895BF
:100740000E943A086115710579F0FB0101900020C3
:10075000E9F73197AF01461B570BDC01ED91FC9196
:100760000280F381E02D099480E090E008958F925B
:100770009F92AF92BF92EF92FF920F931F93CF93EE
:10078000DF93CDB7DEB7A1970FB6F894DEBF0FBEEB
:10079000CDBF7C01FA01CB0119A2223008F42AE076
:1007A0008E010F5D1F4F822E912CA12CB12CBF0109
:1007B000A50194010E941208F901CA010150110912
:1007C0006A3014F4605D01C0695CD8016C93232B1E
:1007D000242B252B61F7B801C7010E94A203A19623
:1007E0000FB6F894DEBF0FBECDBFDF91CF911F9142
:1007F0000F91FF90EF90BF90AF909F908F900895D2
:100800001F920F920FB60F9211242F933F934F9385
:100810005F936F937F938F939F93AF93BF93EF9368
:10082000FF938091B900887F803609F49CC068F5F9
:10083000883209F45BC090F4803109F454C038F474
:10084000882309F4F6C0883009F44DC0F6C0883119
:1008500009F44CC0803209F45DC0EFC0803409F463
:1008600068C048F4803309F455C0883309F0E5C006
:100870008093E801D8C0803509F44FC0883509F469
:100880005DC0883409F0D9C0D6C0883909F4C7C022
:10089000A8F4883709F467C038F4883609F463C0CF
:1008A000803709F460C0C9C0883809F4B8C08039FD
:1008B00009F45FC0803809F0C0C05BC0803B09F418
:1008C00086C038F4803A09F466C0883A09F47FC0DB
:1008D000B4C0803C09F4A7C0883C09F4A4C0883B9C
:1008E00009F48AC0AAC080910E0210C090910D0236
:1008F00080910C02981770F5E0910D0281E08E0F47
:1009000080930D02F0E0E451FE4F80818093BB00A4
:1009100085EC86C08093E8018EC0E0910D0281E0F5
:100920008E0F80930D028091BB00F0E0E451FE4FEA
:10093000808390910D0280910C026EC0E0910D02B7
:1009400081E08E0F80930D028091BB00F0E0E451B6
:10095000FE4F80838091EB0181116DC081E0809317
:10096000EA0184EA61C083E08093E9011092E70123
:10097000CFCF8091E701803208F051C0E091E701CC
:1009800081E08E0F8093E7018091BB00F0E0E95396
:10099000FE4F8083BDCF85EC8093BC001092E901AF
:1009A0008091E701803230F4E091E701F0E0E95313
:1009B000FE4F10826091E70170E0E091C501F09177
:1009C000C60187EC91E009951092E70136C084E0FA
:1009D0008093E9011092C4011092C301E091C1011A
:1009E000F091C20109958091C301811105C081E098
:1009F0008093C3011092A101E091C40181E08E0FA8
:100A00008093C401F0E0EF55FE4F80818093BB00DE
:100A10009091C4018091C301981708F479CF85E8BB
:100A20008093BC000AC085EC8093BC001092E90161
:100A300004C01092E8010E948C00FF91EF91BF91D9
:100A4000AF919F918F917F916F915F914F913F9166
:100A50002F910F900FBE0F901F9018951F920F921D
:100A60000FB60F9211242F933F938F939F93AF93C1
:100A7000BF938091540190915501A0915601B0917E
:100A800057013091530123E0230F2D3720F40196B5
:100A9000A11DB11D05C026E8230F0296A11DB11DA1
:100AA000209353018093540190935501A0935601D4
:100AB000B09357018091580190915901A0915A012A
:100AC000B0915B010196A11DB11D809358019093D7
:100AD0005901A0935A01B0935B01BF91AF919F91CF
:100AE0008F913F912F910F900FBE0F901F901895EF
:100AF0001F920F920FB60F9211242F933F934F9393
:100B00005F936F937F938F939F93AF93BF93EF9375
:100B1000FF938BE192E00E946702FF91EF91BF91FA
:100B2000AF919F918F917F916F915F914F913F9185
:100B30002F910F900FBE0F901F9018951F920F923C
:100B40000FB60F9211242F938F939F93EF93FF93E0
:100B5000E0912B02F0912C028081E0913102F09122
:100B6000320282FD12C09081809134028F5F8F73B8
:100B700020913502821751F0E0913402F0E0E55EF9
:100B8000FD4F958F8093340201C08081FF91EF91DA
:100B90009F918F912F910F900FBE0F901F901895DE
:100BA000EFE0F2E01382128288EE93E0A0E0B0E082
:100BB00084839583A683B7832CE031E0318320833F
:100BC000EBE1F2E01382128284839583A683B783DC
:100BD0008EE191E09183808385EC90E09587848716
:100BE00084EC90E09787868780EC90E0918B808BF7
:100BF00081EC90E0938B828B82EC90E0958B848BE0
:100C000086EC90E0978B868B118E128E138E148E4D
:100C1000E8EBF2E01382128280E391E0918380831B
:100C200087E2848380E1818782E08287138608954A
:100C3000CF93DF93CDB7DEB728970FB6F894DEBF1A
:100C40000FBECDBF789484B5826084BD84B58160C9
:100C500084BD85B5826085BD85B5816085BD809187
:100C60006E00816080936E001092810080918100FF
:100C700082608093810080918100816080938100F7
:100C8000809180008160809380008091B1008460B9
:100C90008093B1008091B00081608093B00080911A
:100CA0007A00846080937A0080917A0082608093D9
:100CB0007A0080917A00816080937A0080917A0036
:100CC000806880937A001092C10010929E01109269
:100CD0009D011092A00110929F011092E90181E004
:100CE0008093EB011092EA0182E10E94710183E19D
:100CF0000E9471018091B9008E7F8093B90080912C
:100D0000B9008D7F8093B90088E48093B80085E4B2
:100D10008093BC008EEB90E09093C2018093C10160
:100D20008FEB90E09093C6018093C5011092BD02B5
:100D30008091C202823018F098E09093BD028093B7
:100D4000C00262E370E080E090E00E94BC0160912C
:100D5000C30288EB92E00E94020368EE73E080E039
:100D600090E00E94BC0160E388EB92E00E94660381
:100D70000BE416E4C8010197F1F760E388EB92E019
:100D80000E946603C8010197F1F760E388EB92E0E7
:100D90000E94660383E592E00197F1F760E288EB39
:100DA00092E00E9466036091BD02606240E088EBC1
:100DB00092E00E947F0384E08093BE0240E06CE0FA
:100DC00088EB92E00E947F0340E061E088EB92E0D4
:100DD0000E947F030BE31FE1C8010197F1F782E056
:100DE0008093BF0240E066E088EB92E00E947F03C0
:100DF00040E062E088EB92E00E947F03C801019727
:100E0000F1F788E08093C30260E088EB92E00E94F3
:100E100002030DE910E0F801249149E8E42E40E0D6
:100E2000F42EF70184918823C9F090E0880F991F70
:100E3000FC01E859FF4FA591B491FC01E458FF4F24
:100E4000459154913FB7F8949C91822F80959823B7
:100E50009C93FA019081892380833FBF68E371E00E
:100E600088EB92E00E94A203E0912B02F0912C0209
:100E700082E08083E0912702F09128021082E091C5
:100E80002902F0912A028FEC808310923302E091C4
:100E90002F02F091300286E08083E0912D02F091E4
:100EA0002E02808180618083E0912D02F0912E02DC
:100EB000808188608083E0912D02F0912E028081F4
:100EC00080688083E0912D02F0912E0280818F7DD9
:100ED000808391EBC92E90E0D92EF6018491F80120
:100EE000A490F701B490BB20A1F081110E944801A9
:100EF000EB2DF0E0EE0FFF1FEE58FF4FA591B491E0
:100F00008C918A2121E090E009F420E0A22EB92EF4
:100F100002C0A12CB12CB0925201A092510188E0E4
:100F2000E0E0F1E0DE01119601900D928A95E1F783
:100F30008091C002811102C08FEF01C081E0FE01EB
:100F40003196E80FF11DE80FF11D6081606840E007
:100F500088EB92E00E947F03AA94AB2869F5809108
:100F60004F0190915001892B39F580904D0190905F
:100F70004E018FEF881A980A90924E0180924D018F
:100F8000092C000CAA08BB08B7FE0FC041E06DE2B7
:100F900088EB92E00E947F0344275527BA01481945
:100FA00059096A097B092AE003C02AE0B501A401B6
:100FB00088EB92E00E94B703809151019091520119
:100FC0009093500180934F016AE471E08BE192E0CD
:100FD0000E94A20380904D0190904E01092C000CBC
:100FE000AA08BB08B7FE0EC06DE28BE192E00E943A
:100FF000890244275527BA01481959096A097B090A
:101000002AE003C02AE0B501A4018BE192E00E942E
:10101000B70368E471E08BE192E00E94A2030E94B2
:10102000F8025BCFA1E21A2EAA1BBB1BFD010DC06B
:10103000AA1FBB1FEE1FFF1FA217B307E407F50788
:1010400020F0A21BB30BE40BF50B661F771F881F64
:10105000991F1A9469F760957095809590959B01FA
:10106000AC01BD01CF010895EE0FFF1F0590F49173
:10107000E02D099481E090E0F8940C943F08F894F6
:02108000FFCFA0
:101082000000400014005400000000001901EC00B0
:101092009D03C000E400D000C100000000008902EE
:1010A200F6012002D60251022F0243020000000084
:1010B2009603F6019D039C03427574746F6E205073
:0C10C2007265737365733A000D0A00003C
:00000001FF
